:1000000078C092C091C090C08FC08EC02FC38CC0EA
:100010008BC08AC089C088C087C086C085C084C0A4
:1000200083C082C081C0303D44697361626C6520C9
:1000300000004D696E757465202020200000536813
:100040006F727420627265616B20636E743A000097
:100050004C6F6E6720427265616B3A000053686FA7
:10006000727420427265616B3A0000576F726B20A8
:1000700074696D653A202020202000004C6F6E6767
:1000800020627265616B202020203B440000536891
:100090006F727420627265616B2020203B29000022
:1000A00049747320776F726B2074696D65203A44D0
:1000B0000000001F000000001F00001F10101010A3
:1000C0001F00001F181818181F00001F1C1C1C1CE4
:1000D0001F00001F1E1E1E1E1F00001F1F1F1F1FB0
:1000E0001F0003070F1F0F070300181C1E1F1E1CF5
:1000F000180011241FBECFE5D4E0DEBFCDBF10E055
:10010000A0E6B0E0E6EAFAE002C005900D92A4365F
:10011000B107D9F710E0A4E6B0E001C01D92AB36FC
:10012000B107E1F737D4BDC46BCF809163008B3F3B
:1001300060F4809162008B3F40F4809161008B3FBE
:1001400020F4809160008B3060F085E08093630044
:100150008FE08093620089E18093610084E0809366
:10016000600084E090E0609163007ED483E090E0E2
:100170006091620079D482E090E06091610074D473
:1001800081E090E0609160006FD480E090E06BE0EF
:100190006BD40895EF92FF920F931F93CF93DF9349
:1001A000082F7B01142FC42FDD27C7FDD095CB016D
:1001B00060E070E05D2F2AD4802F992787FD90950D
:1001C000B7014AE050E029D4CE0DDF1D2197812FE1
:1001D0008150992787FD909501968E0D9F1D30E3E4
:1001E0000CC0212FDC0104C0FD01329740814E93E9
:1001F00021501216CCF3F70130832881222389F392
:10020000DF91CF911F910F91FF90EF90089580E0C3
:1002100090E022D48B30A9F084E090E01DD480934C
:10022000630083E090E018D48093620082E090E065
:1002300013D48093610081E090E00ED4809360003D
:100240000DC085E0809363008FE08093620089E1B8
:100250008093610084E08093600067DF8091630099
:100260008B3F60F4809162008B3F40F4809161008D
:100270008B3F20F4809160008B3068F085E08093A4
:1002800063008FE08093620089E18093610084E0E5
:10029000809360004ADF08952AEF30E004C0F9013E
:1002A0003197F1F701970097D1F708951092680000
:1002B00010926A000895089587E084BB88E385BBA7
:1002C0008EB588608EBD89B7806189BF789488E0DB
:1002D0009DE39BBD8ABD8EB583608EBD94D220D236
:1002E00008950F931F93CF93DF9300D000D00F9208
:1002F000CDB7DEB7082F162F80916800BE016F5F63
:100300007F4F43E047DF8AE38C8380E061E02CD2BB
:10031000CE01019664E00AD280916A00BE016F5F4F
:100320007F4F42E037DF84E061E01ED2CE010196CC
:1003300062E0FCD186E061E017D2802F612F4AE0B5
:10034000E8D20F900F900F900F900F90DF91CF9108
:100350001F910F910895CF93DF93D82F809167005D
:10036000813049F0823061F08823A1F4C0916100AE
:1003700080EA90E009C0C09163008EE890E004C07C
:10038000C09162008CE790E060E040E0FBD18D2FEF
:100390006C2FA7DFDF91CF91089590916700913086
:1003A00061F19230B1F1992309F042C0992787FD9C
:1003B00090952091610030E082179307E4F040911E
:1003C000690050916000242F332727FD3095852F39
:1003D00090E02817390714F4552331F482E0809314
:1003E00067001092690020C081E0809367004F5F32
:1003F0004093690019C083E00AC0992787FD909552
:100400002091630030E08217930764F486E085BB97
:100410000895992787FD90952091620030E082171A
:10042000930724F01092670041DF089584E085BBB4
:100430000895CF93C82F23B330E0082E02C035951E
:1004400027950A94E2F720FD0EC089E190E024DFB1
:1004500023B330E002C035952795CA95E2F781E0D5
:1004600090E020FF02C080E090E0CF91089583E00B
:10047000E0DF20916400009731F02223D9F481E07D
:100480008093640017C02130A9F480916700833005
:1004900014F483E003C0863024F48F5F80936700F8
:1004A00006C043DE1092670010926900FFDE1092D2
:1004B000640036D181E090E020916700233014F48D
:1004C00080E090E0089584E0B4DF2091650000971B
:1004D00031F02223A9F581E08093650031C02130FD
:1004E00079F580916700843091F085301CF4833079
:1004F00029F505C0853099F0863001F518C0809146
:1005000063008A3FD8F48F5F8093630017C08091A7
:1005100062008A3F98F48F5F809362000FC08091E1
:1005200061008A3F58F48F5F8093610007C080911B
:100530006000823318F48F5F809360001092650032
:1005400085E077DF20916600009731F02223B9F52E
:1005500081E0809366000895213089F580916700DD
:10056000843091F085301CF4833039F505C0853036
:1005700099F0863011F518C0809163008230E8F060
:1005800081508093630019C0809162008230A8F08E
:1005900081508093620011C080916100823068F0C8
:1005A00081508093610009C080916100882329F007
:1005B00080916000815080936000109266000895E1
:1005C0001F93CF93DF9300D000D0CDB7DEB78091DB
:1005D0006700843089F085301CF4833029F505C02C
:1005E000853089F0863001F515C01091630086E0F2
:1005F00085BB8DE590E014C01091620085E085BB5D
:1006000080E590E00DC01091610083E085BB8BE632
:1006100090E006C01091600084E085BB8EE390E01E
:1006200060E040E0AFD001C010E0812FBE016F5FFD
:100630007F4F43E0AFDD80E061E096D0CE010196D0
:1006400063E074D080916700863019F082E390E017
:1006500002C086E290E065E041E094D00F900F90F8
:100660000F900F90DF91CF911F9108951F920F92DD
:100670000FB60F9211248F9380916A008F5F809341
:100680006A0080916A008C333CF010926A0080917D
:1006900068008F5F809368008F910F900FBE0F905E
:1006A0001F901895982F907F92BB909A929A2AEF5C
:1006B00030E0F9013197F1F792989098F90131976C
:1006C000F1F790E044E0880F991F4A95E1F782BB6B
:1006D000909A929AC9010197F1F792989098C9015E
:1006E0000197F1F70895982F907F92BB929A2AEF85
:1006F00030E0F9013197F1F79298F9013197F1F76C
:1007000090E054E0880F991F5A95E1F782BB929AC6
:10071000C9010197F1F79298C9010197F1F708957E
:1007200081E0E1DF089582E0DEDF0895EF92FF923D
:100730001F93CF93DF930F92CDB7DEB7009769F089
:10074000182F7C0106C0F70181917F016983AADF20
:1007500069818E2D811B8617B0F30F90DF91CF91A9
:100760001F91FF90EF900895623031F0633031F0C7
:10077000613029F4805C03C08C5E01C08C5A8068B3
:10078000B2DF08951F93CF93DF93EC01862F642F80
:10079000EBDF10E002C086DF1F5FFE01E10FF11DFD
:1007A00084918823C1F7DF91CF911F910895CF9253
:1007B000DF92FF920F931F93CF93DF930F92CDB7EA
:1007C000DEB78C01660F660F660F6064CC24DD24F3
:1007D000F801EC0DFD1DF4908C2D860F698383DFED
:1007E0008F2D60DF0894C11CD11C698188E0C81678
:1007F000D10471F70F90DF91CF911F910F91FF906E
:10080000DF90CF9008951F93CF93DF9386EA9EE009
:100810000197F1F712BA12BA81B3806F81BB81B32D
:10082000876081BB20E322BB929A8AEF90E0FC01B3
:100830003197F1F79298FC013197F1F722BB929A28
:10084000FC013197F1F79298FC013197F1F720E222
:1008500022BB929AFC013197F1F792980197F1F738
:1008600088E241DF8CE03FDFC0E0D0E060E001C023
:10087000612F162F1F5FCE018E549F4F98DF289651
:100880001830B1F7DF91CF911F910895CF93DF9387
:10089000D82FC0E003C08EE126DFCF5FCD17D9F798
:1008A000DF91CF910895CF93DF93D82FC0E003C09D
:1008B00088E119DFCF5FCD17D9F7DF91CF91089588
:1008C0008EE011DF08958FE00EDF08958CE00BDFDE
:1008D000089588E008DF08958CE005DF0895CF9340
:1008E000DF93D82FC0E003C080E1FDDECF5FCD17DE
:1008F000D9F7DF91CF910895CF93DF93D82FC0E040
:1009000003C084E1F0DECF5FCD17D9F7DF91CF913F
:100910000895DF92EF92FF920F931F93CF93DF938F
:10092000F42E482F50E08F2D90E09C01220F331FB2
:10093000280F391F220F331F429FC001439F900D84
:10094000529F900D112470E04ED08B01CB0166E0D8
:1009500070E035D0D82EC0E0D0E0EE2411C09E016A
:100960002B5F3F4F0217130728F40C171D0720F0C9
:100970008D2D03C085E001C080E094DEE3942696CF
:10098000EF1469F7DF91CF911F910F91FF90EF90D6
:10099000DF9008953CDC8ADC8FDC1092670067DD15
:1009A000009739F480916800F8DC80916800D3DC0E
:1009B00002C089DD05DE89E190E06EDCF0CFAA1B84
:1009C000BB1B51E107C0AA1FBB1FA617B70710F03A
:1009D000A61BB70B881F991F5A95A9F7809590956C
:1009E000BC01CD01089597FB092E07260AD077FD9B
:1009F00004D0E5DF06D000201AF4709561957F4F92
:100A00000895F6F7909581959F4F0895DC0101C0F8
:100A10006D9341505040E0F70895FB019F01E89429
:100A20004230BCF04532ACF44A3029F497FB1EF456
:100A3000909581959F4F642F7727C1DF805D8A3322
:100A40000CF0895D8193CB010097A9F716F45DE264
:100A500051931082C90115C0E199FECF9FBB8EBB97
:100A6000E09A99278DB30895262FE199FECF9FBB79
:100A70008EBB2DBB0FB6F894E29AE19A0FBE019699
:100A80000895DC01FC01672F71917723E1F732971C
:100A900004C07C916D9370836291AE17BF07C8F359
:060AA0000895F894FFCF59
:040AA600020F0A052C
:00000001FF
